:100000000C9462000C948A000C948A000C948A0070
:100010000C948A000C948A000C948A000C948A0038
:100020000C948A000C948A000C948A000C948A0028
:100030000C948A000C948A000C948A000C948A0018
:100040000C9489050C948A000C9457050C94310586
:100050000C948A000C948A000C948A000C948A00F8
:100060000C948A000C948A000000000024002700F1
:100070002A0000000000250028002B0000000000DE
:1000800023002600290004040404040404040202DA
:100090000202020203030303030301020408102007
:1000A0004080010204081020010204081020000012
:1000B0000008000201000003040700000000000027
:1000C0000000D30511241FBECFEFD8E0DEBFCDBFA7
:1000D00011E0A0E0B1E0E4EBF7E102C005900D9281
:1000E000A43FB107D9F723E0A4EFB1E001C01D920E
:1000F000A033B207E1F710E0C2E6D0E004C02197D8
:10010000FE010E94C30BC136D107C9F70E948B06BE
:100110000C94D80B0C94000096E0899FD001112418
:10012000AF53BD4F90967C936E935F9791E09196FD
:100130009C939197E0912E03F0912F0390912D03C2
:10014000992339F0309751F0811108C08091DD0278
:100150000994309719F05C968C91FACF0895CF925C
:10016000DF92EF92FF920F931F9396E0899FF00129
:100170001124EF53FD4F11A2278D30A121303105FD
:1001800051F178F02230310509F451C023303105A6
:1001900009F452C01F910F91FF90EF90DF90CF9024
:1001A00008956623B9F361E070E00E948C002FB7D8
:1001B000F8948091080290910902A0910A02B091EE
:1001C0000B022FBF8093190390931A03A0931B0374
:1001D000B0931C03DFCF9FB7F894C0900802D09073
:1001E0000902E0900A02F0900B029FBF00911903F0
:1001F00010911A0320911B0330911C03C01AD10ADD
:10020000E20AF30A00912B0310912C0330E020E066
:100210000C151D052E053F0550F462E070E01F919E
:100220000F91FF90EF90DF90CF900C948C006111B4
:10023000B1CF63E070E0F3CF70E060E0F0CFFC019D
:10024000538D448D252F30E0842F90E0821B930B3B
:10025000541710F0CF96089501970895FC01918DE1
:10026000828D981761F0A28DAE0FBF2FB11D5D96E4
:100270008C91928D9F5F9F73928F90E008958FEF86
:100280009FEF0895FC01918D828D981731F0828D3A
:10029000E80FF11D858D90E008958FEF9FEF089591
:1002A000FC01918D228D892F90E0805C9F4F821BF5
:1002B00091098F7399270895FC01A48DA80FB92F78
:1002C000B11DA35ABF4F2C91848D90E001968F737E
:1002D0009927848FA689B7892C93A089B1898C919D
:1002E000837080648C93938D848D981306C00288EC
:1002F000F389E02D80818F7D80830895EF92FF92B6
:100300000F931F93CF93DF93EC0181E0888F9B8D38
:100310008C8D98131AC0E889F989808185FF15C0F2
:100320009FB7F894EE89FF896083E889F989808115
:100330008370806480839FBF81E090E0DF91CF91E4
:100340001F910F91FF90EF900895F62E0B8D10E006
:100350000F5F1F4F0F731127E02E8C8D8E110CC075
:100360000FB607FCFACFE889F989808185FFF5CFC0
:10037000CE010E945C01F1CFEB8DEC0FFD2FF11D42
:10038000E35AFF4FF0829FB7F8940B8FEA89FB89FD
:1003900080818062CFCFCF93DF93EC01888D88235B
:1003A000B9F0AA89BB89E889F9898C9185FD03C0D8
:1003B000808186FD0DC00FB607FCF7CF8C9185FFBD
:1003C000F2CF808185FFEDCFCE010E945C01E9CFA5
:1003D000DF91CF9108958CE092E00E94500121E0DE
:1003E000892B09F420E0822F089580E090E0892B8A
:1003F00029F00E94EB0181110C9400000895AF9246
:10040000BF92CF92DF92EF92FF920F931F93CF9301
:10041000DF936C017B018B01040F151FEB015E0163
:10042000AE18BF08C017D10759F06991D601ED91F8
:10043000FC910190F081E02DC6010995892B79F797
:10044000C501DF91CF911F910F91FF90EF90DF9049
:10045000CF90BF90AF900895833081F028F4813021
:1004600099F08230A9F008958730A9F08830C9F05A
:100470008430B1F4809180008F7D03C08091800032
:100480008F7780938000089584B58F7784BD089519
:1004900084B58F7DFBCF8091B0008F778093B000C3
:1004A00008958091B0008F7DF9CFCF93DF93282FEF
:1004B00030E0F901E255FF4F8491F901E656FF4F14
:1004C000D491F901EA57FF4FC491CC23A1F08111D7
:1004D0000E942C02EC2FF0E0EE0FFF1FE458FF4FBC
:1004E000A591B491EC91ED2381E090E009F480E0D6
:1004F000DF91CF91089580E090E0FACF862F0C94A1
:1005000055021F93CF93DF93282F30E0F901E25576
:10051000FF4F8491F901E656FF4FD491F901EA5754
:10052000FF4FC491CC23A9F0162F81110E942C02F9
:10053000EC2FF0E0EE0FFF1FEE58FF4FA591B491A6
:100540008FB7F894EC91111108C0D095DE23DC939D
:100550008FBFDF91CF911F910895DE2BF8CF862FAB
:10056000642F0C948102CF93DF9390E0FC01E65658
:10057000FF4F24918A579F4FFC0184918823C9F033
:1005800090E0880F991FFC01E859FF4FA591B491A5
:10059000FC01EE58FF4FC591D49161110DC09FB77A
:1005A000F8948C91209582238C938881282328832A
:1005B0009FBFDF91CF910895623051F49FB7F894B7
:1005C0003C91822F809583238C93E8812E2BEFCF53
:1005D0008FB7F894EC912E2B2C938FBFEACF862FF8
:1005E000642F0C94B3023FB7F8948091F501909179
:1005F000F601A091F701B091F80126B5A89B05C0BE
:100600002F3F19F00196A11DB11D3FBFBA2FA92F91
:10061000982F8827BC01CD01620F711D811D911D8E
:1006200042E0660F771F881F991F4A95D1F70895FA
:100630008F929F92AF92BF92CF92DF92EF92FF92F2
:100640004B015C010E94F3026B017C010E94F302EA
:100650006C197D098E099F09683E734081059105DB
:10066000A8F321E0821A9108A108B10888EEC80E0B
:1006700083E0D81EE11CF11C81149104A104B10493
:1006800029F7FF90EF90DF90CF90BF90AF909F90B1
:100690008F900895089590E080E00895CF93DF93C0
:1006A000EC0160E08E810E94810261E08E810E94F7
:1006B000810260E08E810E9481028BE891E00197C7
:1006C000F1F7DF91CF910895CF92DF92EF92FF92F1
:1006D0000F931F93CF93DF936C017C0187E0E80EAB
:1006E000F11CD0E0C0E0062F10E0B8010C2E02C0D3
:1006F000759567950A94E2F76170F70181917F0122
:100700000E9481022196C430D10579F7C601DF919C
:10071000CF911F910F91FF90EF90DF90CF900C94AD
:100720004E03CF92DF92EF92FF920F931F93CF93DE
:10073000DF93EC01F62E642F8C810E9481028D8163
:100740008F3F19F060E00E9481020F2D10E08F852D
:1007500084FF25C06E0187E0C80ED11CF12CE12C6E
:10076000B8010E2C02C0759567950A94E2F7617086
:10077000F60181916F010E948102FFEFEF1AFF0ADB
:1007800088E0E816F10461F7CE01DF91CF911F9167
:100790000F91FF90EF90DF90CF900C944E03B80133
:1007A00084E0759567958A95E1F7CE010E94640310
:1007B0006F2DCE01DF91CF911F910F91FF90EF90A0
:1007C000DF90CF900C94640340E0682F89EA92E0B8
:1007D0000C94910381E00E94E4038BE39FE1019775
:1007E000F1F70895CF93DF93823029F49091B80206
:1007F00098609093B8028093BC021092BD0280E48E
:100800008093BE0280E18093BF0280E58093C002A6
:1008100061E08091AD020E94B3028091AE028F3FF1
:1008200019F061E00E94B30261E08091AF020E9482
:10083000B302C9EAD2E09E01295A32408091B8023F
:1008400084FD0BC084E090E021962817390744F41A
:1008500061E08E810E94B302EECF88E090E0F4CF99
:100860008BE39DE00197F1F760E08091AD020E947B
:10087000810260E08091AF020E9481028091AE020D
:100880008F3F19F060E00E9481028091B80284FDE0
:1008900034C063E089EA92E00E946403CBE4D6E4CA
:1008A000CE010197F1F763E089EA92E00E946403C8
:1008B0002197F1F763E089EA92E00E94640383E5FF
:1008C00092E00197F1F762E089EA92E00E94640306
:1008D0008091B80280620E94E40384E08093B902B0
:1008E0008CE00E94E4030E94EA0382E08093BA0253
:1008F00086E0DF91CF910C94E40380620E94E403D0
:100900008BE496E40197F1F78091B80280620E942F
:10091000E40383E592E00197F1F78091B8028062E9
:100920000E94E403D5CF41E00E94910381E090E072
:100930000895FB0101900020E9F73197AF01461BB4
:10094000570BDC01ED91FC910280F381E02D0994BD
:10095000CF93DF93BC018CE092E00E949904EC01FC
:1009600060E471E08CE092E00E9499048C0F9D1F7E
:10097000DF91CF910895CF92DF92EF92FF920F9384
:100980001F93CF93DF93CDB7DEB7A1970FB6F8943F
:10099000DEBF0FBECDBF6B017C01F7FE3EC041E064
:1009A0006DE289EA92E00E94910322273327A90190
:1009B0002C193D094E095F0919A28E010F5D1F4FC9
:1009C0009AE0C92ED12CE12CF12CCA01B901A70162
:1009D00096010E94770B605DF80162938F012115EB
:1009E00031054105510589F790E080E0309729F005
:1009F000BF0189EA92E00E9499040196A1960FB680
:100A0000F894DEBF0FBECDBFDF91CF911F910F9144
:100A1000FF90EF90DF90CF900895AC019B0119A259
:100A20008E010F5D1F4F8AE0C82ED12CE12CF12CD6
:100A3000CA01B901A70196010E94770B605DF80118
:100A400062938F01211531054105510589F790E029
:100A500080E0309799F2BF0189EA92E00E94990400
:100A6000CDCF1F920F920FB60F9211242F933F9369
:100A70004F935F936F937F938F939F93AF93BF93A6
:100A8000EF93FF938CE092E00E945C01FF91EF9165
:100A9000BF91AF919F918F917F916F915F914F9196
:100AA0003F912F910F900FBE0F901F9018951F929E
:100AB0000F920FB60F9211242F938F939F93EF9362
:100AC000FF93E0911C02F0911D028081E0912202CF
:100AD000F091230282FD1BC09081809125028F5FDF
:100AE0008F7320912602821741F0E0912502F0E0F9
:100AF000E45FFD4F958F80932502FF91EF919F91C9
:100B00008F912F910F900FBE0F901F90189580819D
:100B1000F4CF1F920F920FB60F9211242F933F9391
:100B20008F939F93AF93BF93809108029091090296
:100B3000A0910A02B0910B023091F40123E0230F3F
:100B40002D3758F50196A11DB11D2093F401809316
:100B5000080290930902A0930A02B0930B028091BD
:100B6000F5019091F601A091F701B091F80101967D
:100B7000A11DB11D8093F5019093F601A093F7019B
:100B8000B093F801BF91AF919F918F913F912F91B9
:100B90000F900FBE0F901F90189526E8230F029616
:100BA000A11DB11DD2CF10920F0210920E0288EE3D
:100BB00093E0A0E0B0E08093100290931102A09324
:100BC0001202B09313028CE191E090930D02809396
:100BD0000C0285EC90E0909319028093180284EC4B
:100BE00090E090931B0280931A0280EC90E0909327
:100BF0001D0280931C0281EC90E090931F02809371
:100C00001E0282EC90E0909321028093200286ECF9
:100C100090E090932302809322021092250210927A
:100C2000260210922702109228021092C3021092FC
:100C3000C7021092C6021092C8028AE391E0909314
:100C4000C2028093C102EDEDF2E0108214821382A1
:100C50001582369683E0E931F807B9F784E091E030
:100C6000909324038093230380E091E090932603E4
:100C70008093250384E0809327038093280388E0F2
:100C800091E090932203809321038AE090E0909377
:100C90002A038093290384EF91E090932C0380939F
:100CA0002B0310922F0310922E0310921D0310920B
:100CB0001E0310921F031092200310922D03109216
:100CC000AC021092AB028EE291E09093AA02809364
:100CD000A90288E08093AD028FEF8093AE0289E095
:100CE0008093AF028AE08093B0028BE08093B102E0
:100CF0008CE08093B2028DE08093B3021092B40234
:100D00001092B5021092B6021092B7021092B80279
:100D100081E00C94F203789484B5826084BD84B53C
:100D2000816084BD85B5826085BD85B5816085BDE6
:100D300080916E00816080936E001092810080919E
:100D40008100826080938100809181008160809326
:100D50008100809180008160809380008091B1004B
:100D600084608093B1008091B00081608093B00076
:100D700080917A00846080937A0080917A0082600A
:100D800080937A0080917A00816080937A008091CC
:100D90007A00806880937A001092C10082E00E94FD
:100DA000F20363E471E089EA92E00E94990460ED45
:100DB00077E080E090E00E9418030E94EA0365E07B
:100DC000462E512C612C712C22242A94322C50E076
:100DD000852E50E0952E81E080932D038FB7F894F7
:100DE000409108025091090260910A0270910B0231
:100DF0008FBF80911D0390911E03A0911F03B0919E
:100E00002003481B590B6A0B7B0B8091290390919F
:100E10002A03B0E0A0E084179507A607B70708F0FB
:100E200096C1C0E080912703C81760F4E0912303C6
:100E3000F0912403EC0FF11D62E080810E94B30267
:100E4000CF5FF0CFB12C80912803B81608F061C0B5
:100E50000B2D10E0E0912503F0912603E00FF11F28
:100E600061E080810E94B302E0912503F0912603A6
:100E7000E00FF11F60E080810E94810281E090E03C
:100E8000A0E0B0E00B2C04C0880F991FAA1FBB1F65
:100E90000A94D2F76C017C01E094F094A12C80912B
:100EA0002703A816F8F4CA2DD0E0E0912303F091AF
:100EB0002403EC0FFD1F80810E9455022496CC0F65
:100EC000DD1FCF53DD4F892B41F4888199818C2917
:100ED0009D2999838883A394E2CF888199818E216B
:100EE0009F21F7CFE0912503F0912603E00FF11F3A
:100EF00061E080810E948102809125039091260308
:100F0000080F191F60E0D8018C910E94B302B394BE
:100F10009ACF21ECC22E22E0D22EE6018F8D98A12D
:100F2000892B21F41C8E3E8E2D8E19A22696EDEF74
:100F3000F2E0EC17FD0791F710E096E0B92E8091F2
:100F40002703181708F052C000E0E12EF12CEE0C38
:100F5000FF1C970127533D4F790120912803021769
:100F600008F042C0D7016D917C91002E02C07695A9
:100F700067950A94E2F7129F90011124200F311D0A
:100F8000E1ECF2E080E0458D568D2417350709F439
:100F90009CC38F5F36968A30B1F760FF23C0E1ECC7
:100FA000F2E090E080E0448D411117C0E091210310
:100FB000F0912203E20FF31F6081B89EF001B99E09
:100FC000F00D1124EF53FD4F648F368F258F10A243
:100FD000178E61E00E94AF0005C0019636968A30F8
:100FE000910509F70F5FB9CF1F5FA9CF80E0F60128
:100FF00091A19111892FF6E0CF0ED11CCC15DD0502
:10100000B1F79FB7F894409108025091090260919E
:101010000A0270910B029FBF40931D0350931E0361
:1010200060931F0370932003882309F490C080917C
:10103000E202882309F48BC08091E0029091E102E2
:10104000019709F084C0C091DD02C0930702C1116D
:1010500083C0C0900202D0900302E0900402F0909E
:101060000502809106028823C9F0809101028B322B
:1010700009F0E7C28091FD019091FE01A091FF016E
:10108000B09100028C0D9D1DAE1DBF1D8093F90116
:101090009093FA01A093FB01B093FC01E1E08091F1
:1010A000BC028111E0E0E195F0E0E755FD4F848955
:1010B00080680E94E403C701B6010E94BB0441E0BE
:1010C0006091010289EA92E00E9491036091FD0122
:1010D0007091FE018091FF01909100020E94BB047B
:1010E00080910602882381F060EF71E089EA92E046
:1010F0000E9499046091F9017091FA018091FB01BD
:101100009091FC010E94BB04E091BC02E23008F027
:10111000DAC2E150F0E0E755FD4F848980680E9413
:10112000E4036091F9017091FA018091FB019091C3
:10113000FC010E94BB048114910409F44CCE0E946E
:10114000EB01882309F440CE0E9400003DCE1092AE
:101150002D03109207027DCF0E94EA03CA32F1F4F8
:101160008EE491E00E94A8041092FD011092FE010D
:101170001092FF01109200021092020210920302DC
:1011800010920402109205021092F9011092FA01D5
:101190001092FB011092FC0110920602809107024E
:1011A0008133F1F48CE591E00E94A8042091F901CB
:1011B0003091FA014091FB015091FC01211531055C
:1011C0004105510509F0A4C121E030E040E050E0C4
:1011D0002093F9013093FA014093FB015093FC01F5
:1011E000809107028433F1F485E691E00E94A8041F
:1011F0002091F9013091FA014091FB015091FC01DD
:10120000211531054105510509F093C184E090E0B5
:10121000A0E0B0E08093F9019093FA01A093FB0164
:10122000B093FC01809107028733F1F48EE691E0E0
:101230000E94A8042091F9013091FA014091FB012C
:101240005091FC01211531054105510509F082C17C
:1012500027E030E040E050E02093F9013093FA01BC
:101260004093FB015093FC01809107028033E9F425
:1012700087E791E00E94A8042091F9013091FA01DA
:101280004091FB015091FC012115310541055105AB
:1012900061F0AAE0B0E00E94B80B6093F90170938E
:1012A000FA018093FB019093FC0180910702823345
:1012B000F1F480E891E00E94A8042091F9013091B6
:1012C000FA014091FB015091FC01211531054105C6
:1012D000510509F050C182E090E0A0E0B0E08093B9
:1012E000F9019093FA01A093FB01B093FC01809166
:1012F00007028533D1F489E891E00E94A804209187
:10130000F9013091FA014091FB015091FC01211546
:1013100031054105510509F03FC14092F901509254
:10132000FA016092FB017092FC0180910702883300
:10133000F1F482E991E00E94A8042091F901309132
:10134000FA014091FB015091FC0121153105410545
:10135000510509F032C128E030E040E050E0209330
:10136000F9013093FA014093FB015093FC01809105
:1013700007028332B9F48BE991E00E94A8048091BE
:10138000F9019091FA01A091FB01B091FC018093C9
:10139000FD019093FE01A093FF01B093000281E054
:1013A00080930602809107028333F1F488EA91E08A
:1013B0000E94A8042091F9013091FA014091FB01AB
:1013C0005091FC01211531054105510509F006C177
:1013D00083E090E0A0E0B0E08093F9019093FA01FF
:1013E000A093FB01B093FC01809107028633F1F4D6
:1013F00081EB91E00E94A8042091F9013091FA015B
:101400004091FB015091FC01211531054105510529
:1014100009F0F5C026E030E040E050E02093F9010B
:101420003093FA014093FB015093FC018091070235
:101430008933F1F48AEB91E00E94A8042091F9012C
:101440003091FA014091FB015091FC0121153105C9
:101450004105510509F0E4C089E090E0A0E0B0E06A
:101460008093F9019093FA01A093FB01B093FC01E2
:10147000809107029FEB980F943008F0EACD4091DD
:10148000F9015091FA016091FB017091FC014093C8
:1014900002025093030260930402709305021092BB
:1014A000F9011092FA011092FB011092FC018134B3
:1014B00039F483EC91E00E94A8048BE2809301024E
:1014C00080910702823439F48CEC91E00E94A804E8
:1014D0008DE28093010280910702833439F488ED14
:1014E00091E00E94A8048AE28093010280910702A1
:1014F000843439F487EE91E00E94A8048FE280934F
:10150000010264E670E080E090E00E941803A1CD43
:10151000AAE0B0E00E94B80B6F5F7F4F8F4F9F4FE4
:101520006093F9017093FA018093FB019093FC01A1
:1015300057CEAAE0B0E00E94B80B6C5F7F4F8F4F90
:101540009F4F6093F9017093FA018093FB01909390
:10155000FC0168CEAAE0B0E00E94B80B695F7F4F43
:101560008F4F9F4F6093F9017093FA018093FB01B5
:101570009093FC0179CEAAE0B0E00E94B80B6E5FB8
:101580007F4F8F4F9F4F6093F9017093FA018093C3
:10159000FB019093FC01ABCEAAE0B0E00E94B80B37
:1015A0006B5F7F4F8F4F9F4F6093F9017093FA01EC
:1015B0008093FB019093FC01B8CEAAE0B0E00E94BA
:1015C000B80B685F7F4F8F4F9F4F6093F901709307
:1015D000FA018093FB019093FC01C9CEAAE0B0E030
:1015E0000E94B80B6D5F7F4F8F4F9F4F6093F90143
:1015F0007093FA018093FB019093FC01F5CEAAE071
:10160000B0E00E94B80B6A5F7F4F8F4F9F4F60938F
:10161000F9017093FA018093FB019093FC0106CFCE
:10162000AAE0B0E00E94B80B675F7F4F8F4F9F4FDB
:101630006093F9017093FA018093FB019093FC0190
:1016400017CF8D3289F48091FD019091FE01A09118
:10165000FF01B0910002A7019601281B390B4A0B2C
:101660005B0BDA01C90112CD8A32A9F42091FD0188
:101670003091FE014091FF0150910002C701B60177
:101680000E94670B6093F9017093FA018093FB014C
:101690009093FC0103CD8F3209F000CD2091FD0124
:1016A0003091FE014091FF0150910002C701B60147
:1016B0000E94990B2093F9013093FA014093FB01AA
:1016C0005093FC01EBCCE1E025CD617083CCDB01D4
:1016D0008F939F930E94B80BBF91AF91A29F800DF3
:1016E000911DA39F900DB29F900D11240895A1E22A
:1016F0001A2EAA1BBB1BFD010DC0AA1FBB1FEE1F8C
:10170000FF1FA217B307E407F50720F0A21BB30BD6
:10171000E40BF50B661F771F881F991F1A9469F752
:1017200060957095809590959B01AC01BD01CF01AE
:101730000895052E97FB1EF400940E94B00B57FDF0
:1017400007D00E94770B07FC03D04EF40C94B00B2B
:1017500050954095309521953F4F4F4F5F4F0895DD
:1017600090958095709561957F4F8F4F9F4F08950D
:101770000E94C90BA59F900DB49F900DA49F800D52
:10178000911D11240895EE0FFF1F0590F491E02D97
:101790000994A29FB001B39FC001A39F700D811D4A
:1017A0001124911DB29F700D811D1124911D08956A
:0417B000F894FFCFDB
:1017B400040506070001020337383944343536433B
:1017C400313233422A302341000000007E01FF0100
:1017D4001F01CB0150012E014201000000009304BF
:1017E400FF014B034A0300000000EF02AF027E0238
:1017F4000D0A0043616C63756C61746F720042750D
:1018040074746F6E2043616E63656C00427574740A
:101814006F6E203100427574746F6E20340042750F
:1018240074746F6E203700427574746F6E203000CC
:10183400427574746F6E203200427574746F6E203A
:101844003500427574746F6E203800427574746F7D
:101854006E20457175616C00427574746F6E20332F
:1018640000427574746F6E203600427574746F6E26
:101874002039004164646974696F6E005375627441
:1018840072616374696F6E004D756C7469706C6914
:10189400636174696F6E004465766573696F6E0089
:0418A400203D0000E3
:00000001FF
